{
  "contractName": "Smart_Police",
  "abi": [
    {
      "inputs": [],
      "payable": false,
      "stateMutability": "nonpayable",
      "type": "constructor"
    },
    {
      "anonymous": false,
      "inputs": [
        {
          "indexed": true,
          "name": "_admin",
          "type": "address"
        },
        {
          "indexed": true,
          "name": "_supervisor",
          "type": "address"
        }
      ],
      "name": "_SetSupervisor",
      "type": "event"
    },
    {
      "anonymous": false,
      "inputs": [
        {
          "indexed": true,
          "name": "_admin",
          "type": "address"
        },
        {
          "indexed": true,
          "name": "_bandit",
          "type": "address"
        },
        {
          "indexed": false,
          "name": "_publicInfo",
          "type": "string"
        }
      ],
      "name": "_SetHistoryBandit",
      "type": "event"
    },
    {
      "anonymous": false,
      "inputs": [
        {
          "indexed": true,
          "name": "_police",
          "type": "address"
        },
        {
          "indexed": false,
          "name": "_publicInfo",
          "type": "string"
        }
      ],
      "name": "_PoliceInfo",
      "type": "event"
    },
    {
      "anonymous": false,
      "inputs": [
        {
          "indexed": true,
          "name": "_supervisor",
          "type": "address"
        },
        {
          "indexed": true,
          "name": "_bandit",
          "type": "address"
        }
      ],
      "name": "_RecorderBandit",
      "type": "event"
    },
    {
      "constant": false,
      "inputs": [
        {
          "name": "_Supervisor",
          "type": "address"
        }
      ],
      "name": "setSupervisor",
      "outputs": [
        {
          "name": "sucess",
          "type": "bool"
        }
      ],
      "payable": false,
      "stateMutability": "nonpayable",
      "type": "function"
    },
    {
      "constant": false,
      "inputs": [
        {
          "name": "_Supervisor",
          "type": "address"
        },
        {
          "name": "_Police",
          "type": "address"
        },
        {
          "name": "_Portfolio",
          "type": "string"
        }
      ],
      "name": "setPortfolio",
      "outputs": [
        {
          "name": "sucess",
          "type": "bool"
        }
      ],
      "payable": false,
      "stateMutability": "nonpayable",
      "type": "function"
    },
    {
      "constant": false,
      "inputs": [
        {
          "name": "_Police",
          "type": "address"
        },
        {
          "name": "_Ipfs",
          "type": "string"
        }
      ],
      "name": "addIpfs",
      "outputs": [
        {
          "name": "sucess",
          "type": "bool"
        }
      ],
      "payable": false,
      "stateMutability": "nonpayable",
      "type": "function"
    },
    {
      "constant": false,
      "inputs": [
        {
          "name": "_Police",
          "type": "address"
        },
        {
          "name": "_Transaction",
          "type": "string"
        }
      ],
      "name": "addTransaction",
      "outputs": [
        {
          "name": "sucess",
          "type": "bool"
        }
      ],
      "payable": false,
      "stateMutability": "nonpayable",
      "type": "function"
    },
    {
      "constant": false,
      "inputs": [
        {
          "name": "_Police",
          "type": "address"
        },
        {
          "name": "_PublicInfo",
          "type": "string"
        }
      ],
      "name": "PoliceInfo",
      "outputs": [
        {
          "name": "sucess",
          "type": "bool"
        }
      ],
      "payable": false,
      "stateMutability": "nonpayable",
      "type": "function"
    },
    {
      "constant": false,
      "inputs": [
        {
          "name": "_Supervisor",
          "type": "address"
        },
        {
          "name": "_Bandit",
          "type": "address"
        },
        {
          "name": "_PublicInfo",
          "type": "string"
        }
      ],
      "name": "setHistoryBandit",
      "outputs": [
        {
          "name": "sucess",
          "type": "bool"
        }
      ],
      "payable": false,
      "stateMutability": "nonpayable",
      "type": "function"
    },
    {
      "constant": true,
      "inputs": [
        {
          "name": "_Police",
          "type": "address"
        }
      ],
      "name": "getPoliceInfo",
      "outputs": [
        {
          "components": [
            {
              "name": "publicInfo",
              "type": "string"
            }
          ],
          "name": "",
          "type": "tuple"
        }
      ],
      "payable": false,
      "stateMutability": "view",
      "type": "function"
    },
    {
      "constant": true,
      "inputs": [
        {
          "name": "_Certifier",
          "type": "address"
        },
        {
          "name": "_Bandit",
          "type": "address"
        }
      ],
      "name": "getHistoryBanditArray",
      "outputs": [
        {
          "components": [
            {
              "name": "publicInfo",
              "type": "string"
            }
          ],
          "name": "",
          "type": "tuple[]"
        }
      ],
      "payable": false,
      "stateMutability": "view",
      "type": "function"
    },
    {
      "constant": true,
      "inputs": [
        {
          "name": "_Bandit",
          "type": "address"
        }
      ],
      "name": "getCertifierBandit",
      "outputs": [
        {
          "components": [
            {
              "name": "certifier",
              "type": "address"
            },
            {
              "name": "certifierPublicInfo",
              "type": "string"
            }
          ],
          "name": "",
          "type": "tuple[]"
        }
      ],
      "payable": false,
      "stateMutability": "view",
      "type": "function"
    },
    {
      "constant": true,
      "inputs": [
        {
          "name": "_Recorder",
          "type": "address"
        }
      ],
      "name": "getRecorderBandit",
      "outputs": [
        {
          "name": "",
          "type": "address[]"
        }
      ],
      "payable": false,
      "stateMutability": "view",
      "type": "function"
    },
    {
      "constant": true,
      "inputs": [
        {
          "name": "_Police",
          "type": "address"
        }
      ],
      "name": "getPortfolio",
      "outputs": [
        {
          "components": [
            {
              "name": "portfolio",
              "type": "string"
            },
            {
              "name": "supervisor",
              "type": "address"
            }
          ],
          "name": "",
          "type": "tuple[]"
        }
      ],
      "payable": false,
      "stateMutability": "view",
      "type": "function"
    },
    {
      "constant": true,
      "inputs": [
        {
          "name": "_Recorder",
          "type": "address"
        }
      ],
      "name": "getClaim",
      "outputs": [
        {
          "name": "sucess",
          "type": "bool"
        }
      ],
      "payable": false,
      "stateMutability": "view",
      "type": "function"
    },
    {
      "constant": true,
      "inputs": [
        {
          "name": "_Police",
          "type": "address"
        }
      ],
      "name": "getIpfs",
      "outputs": [
        {
          "name": "",
          "type": "string[]"
        }
      ],
      "payable": false,
      "stateMutability": "view",
      "type": "function"
    },
    {
      "constant": true,
      "inputs": [
        {
          "name": "_Police",
          "type": "address"
        }
      ],
      "name": "getTransaction",
      "outputs": [
        {
          "name": "",
          "type": "string[]"
        }
      ],
      "payable": false,
      "stateMutability": "view",
      "type": "function"
    }
  ],
  "bytecode": "0x608060405234801561001057600080fd5b50336000806101000a81548173ffffffffffffffffffffffffffffffffffffffff021916908373ffffffffffffffffffffffffffffffffffffffff160217905550612081806100606000396000f3fe6080604052600436106100ca576000357c010000000000000000000000000000000000000000000000000000000090048063057c2f0b146100cf5780630859c93f1461010c5780631f37fa56146101495780634cd3723a146101865780635244ea37146101c35780637bb86379146102005780639299eb301461023d578063bd5e204c1461027a578063cfa53edf146102b7578063decb4b69146102f4578063eb22ae1114610331578063f25447bf1461036e578063f36ac439146103ab578063f887dd87146103e8575b600080fd5b3480156100db57600080fd5b506100f660048036036100f1919081019061183a565b610425565b6040516101039190611d33565b60405180910390f35b34801561011857600080fd5b50610133600480360361012e9190810190611863565b6104f2565b6040516101409190611d77565b60405180910390f35b34801561015557600080fd5b50610170600480360361016b919081019061189f565b61066d565b60405161017d9190611ddd565b60405180910390f35b34801561019257600080fd5b506101ad60048036036101a8919081019061183a565b610817565b6040516101ba9190611ddd565b60405180910390f35b3480156101cf57600080fd5b506101ea60048036036101e59190810190611906565b61086d565b6040516101f79190611ddd565b60405180910390f35b34801561020c57600080fd5b506102276004803603610222919081019061183a565b6108f5565b6040516102349190611d55565b60405180910390f35b34801561024957600080fd5b50610264600480360361025f919081019061183a565b610a1d565b6040516102719190611ddd565b60405180910390f35b34801561028657600080fd5b506102a1600480360361029c919081019061183a565b610b8b565b6040516102ae9190611e5a565b60405180910390f35b3480156102c357600080fd5b506102de60048036036102d99190810190611906565b610c87565b6040516102eb9190611ddd565b60405180910390f35b34801561030057600080fd5b5061031b6004803603610316919081019061189f565b610d5c565b6040516103289190611ddd565b60405180910390f35b34801561033d57600080fd5b506103586004803603610353919081019061183a565b611147565b6040516103659190611dbb565b60405180910390f35b34801561037a57600080fd5b506103956004803603610390919081019061183a565b6112dd565b6040516103a29190611d55565b60405180910390f35b3480156103b757600080fd5b506103d260048036036103cd9190810190611906565b611405565b6040516103df9190611ddd565b60405180910390f35b3480156103f457600080fd5b5061040f600480360361040a919081019061183a565b61148d565b60405161041c9190611d99565b60405180910390f35b6060600560008373ffffffffffffffffffffffffffffffffffffffff1673ffffffffffffffffffffffffffffffffffffffff1681526020019081526020016000208054806020026020016040519081016040528092919081815260200182805480156104e657602002820191906000526020600020905b8160009054906101000a900473ffffffffffffffffffffffffffffffffffffffff1673ffffffffffffffffffffffffffffffffffffffff168152602001906001019080831161049c575b50505050509050919050565b6060600260008373ffffffffffffffffffffffffffffffffffffffff1673ffffffffffffffffffffffffffffffffffffffff16815260200190815260200160002060008473ffffffffffffffffffffffffffffffffffffffff1673ffffffffffffffffffffffffffffffffffffffff168152602001908152602001600020805480602002602001604051908101604052809291908181526020016000905b828210156106615783829060005260206000200160206040519081016040529081600082018054600181600116156101000203166002900480601f0160208091040260200160405190810160405280929190818152602001828054600181600116156101000203166002900480156106495780601f1061061e57610100808354040283529160200191610649565b820191906000526020600020905b81548152906001019060200180831161062c57829003601f168201915b50505050508152505081526020019060010190610590565b50505050905092915050565b600060011515600160008673ffffffffffffffffffffffffffffffffffffffff1673ffffffffffffffffffffffffffffffffffffffff16815260200190815260200160002060009054906101000a900460ff161515141515610704576040517f08c379a00000000000000000000000000000000000000000000000000000000081526004016106fb90611e1a565b60405180910390fd5b61070c611623565b60408051908101604052808481526020018673ffffffffffffffffffffffffffffffffffffffff168152509050600860008573ffffffffffffffffffffffffffffffffffffffff1673ffffffffffffffffffffffffffffffffffffffff168152602001908152602001600020819080600181540180825580915050906001820390600052602060002090600202016000909192909190915060008201518160000190805190602001906107c0929190611653565b5060208201518160010160006101000a81548173ffffffffffffffffffffffffffffffffffffffff021916908373ffffffffffffffffffffffffffffffffffffffff16021790555050505060019150509392505050565b6000600160008373ffffffffffffffffffffffffffffffffffffffff1673ffffffffffffffffffffffffffffffffffffffff16815260200190815260200160002060009054906101000a900460ff169050919050565b6000600460008473ffffffffffffffffffffffffffffffffffffffff1673ffffffffffffffffffffffffffffffffffffffff1681526020019081526020016000208290806001815401808255809150509060018203906000526020600020016000909192909190915090805190602001906108e99291906116d3565b50506001905092915050565b6060600460008373ffffffffffffffffffffffffffffffffffffffff1673ffffffffffffffffffffffffffffffffffffffff168152602001908152602001600020805480602002602001604051908101604052809291908181526020016000905b82821015610a12578382906000526020600020018054600181600116156101000203166002900480601f0160208091040260200160405190810160405280929190818152602001828054600181600116156101000203166002900480156109fe5780601f106109d3576101008083540402835291602001916109fe565b820191906000526020600020905b8154815290600101906020018083116109e157829003601f168201915b505050505081526020019060010190610956565b505050509050919050565b60008060009054906101000a900473ffffffffffffffffffffffffffffffffffffffff1673ffffffffffffffffffffffffffffffffffffffff163373ffffffffffffffffffffffffffffffffffffffff16141515610ab0576040517f08c379a0000000000000000000000000000000000000000000000000000000008152600401610aa790611e3a565b60405180910390fd5b60018060008473ffffffffffffffffffffffffffffffffffffffff1673ffffffffffffffffffffffffffffffffffffffff16815260200190815260200160002060006101000a81548160ff0219169083151502179055508173ffffffffffffffffffffffffffffffffffffffff166000809054906101000a900473ffffffffffffffffffffffffffffffffffffffff1673ffffffffffffffffffffffffffffffffffffffff167f21a3f1c6fc6e5e45f35a978839247e7d1e97222deba64d14eee22796ab916ac260405160405180910390a360019050919050565b610b93611753565b600760008373ffffffffffffffffffffffffffffffffffffffff1673ffffffffffffffffffffffffffffffffffffffff16815260200190815260200160002060206040519081016040529081600082018054600181600116156101000203166002900480601f016020809104026020016040519081016040528092919081815260200182805460018160011615610100020316600290048015610c775780601f10610c4c57610100808354040283529160200191610c77565b820191906000526020600020905b815481529060010190602001808311610c5a57829003601f168201915b5050505050815250509050919050565b6000610c91611753565b60206040519081016040528084815250905080600760008673ffffffffffffffffffffffffffffffffffffffff1673ffffffffffffffffffffffffffffffffffffffff1681526020019081526020016000206000820151816000019080519060200190610cff929190611653565b509050508373ffffffffffffffffffffffffffffffffffffffff167f948b75a8dd7d08325528519c8d786ce355391b1c3673cc6c7d040f66b174881284604051610d499190611df8565b60405180910390a2600191505092915050565b600060011515600160008673ffffffffffffffffffffffffffffffffffffffff1673ffffffffffffffffffffffffffffffffffffffff16815260200190815260200160002060009054906101000a900460ff161515141515610df3576040517f08c379a0000000000000000000000000000000000000000000000000000000008152600401610dea90611e1a565b60405180910390fd5b610dfb611767565b602060405190810160405280848152509050610e1561177b565b60408051908101604052808773ffffffffffffffffffffffffffffffffffffffff168152602001858152509050600660008673ffffffffffffffffffffffffffffffffffffffff1673ffffffffffffffffffffffffffffffffffffffff168152602001908152602001600020819080600181540180825580915050906001820390600052602060002090600202016000909192909190915060008201518160000160006101000a81548173ffffffffffffffffffffffffffffffffffffffff021916908373ffffffffffffffffffffffffffffffffffffffff1602179055506020820151816001019080519060200190610f10929190611653565b50505050600260008673ffffffffffffffffffffffffffffffffffffffff1673ffffffffffffffffffffffffffffffffffffffff16815260200190815260200160002060008773ffffffffffffffffffffffffffffffffffffffff1673ffffffffffffffffffffffffffffffffffffffff168152602001908152602001600020829080600181540180825580915050906001820390600052602060002001600090919290919091506000820151816000019080519060200190610fd4929190611653565b50505050600560008773ffffffffffffffffffffffffffffffffffffffff1673ffffffffffffffffffffffffffffffffffffffff1681526020019081526020016000208590806001815401808255809150509060018203906000526020600020016000909192909190916101000a81548173ffffffffffffffffffffffffffffffffffffffff021916908373ffffffffffffffffffffffffffffffffffffffff160217905550508473ffffffffffffffffffffffffffffffffffffffff168673ffffffffffffffffffffffffffffffffffffffff167fbc4ca386deb6df9c6f82b37c1eae45c3e42350e8bd33440f846ac76ccc0d326560405160405180910390a38473ffffffffffffffffffffffffffffffffffffffff168673ffffffffffffffffffffffffffffffffffffffff167f54a91023aeb9a25e62b48936f2a6a11d23acaef6098c1c3c992d1ab6df3c62c3866040516111329190611df8565b60405180910390a36001925050509392505050565b6060600860008373ffffffffffffffffffffffffffffffffffffffff1673ffffffffffffffffffffffffffffffffffffffff168152602001908152602001600020805480602002602001604051908101604052809291908181526020016000905b828210156112d25783829060005260206000209060020201604080519081016040529081600082018054600181600116156101000203166002900480601f0160208091040260200160405190810160405280929190818152602001828054600181600116156101000203166002900480156112645780601f1061123957610100808354040283529160200191611264565b820191906000526020600020905b81548152906001019060200180831161124757829003601f168201915b505050505081526020016001820160009054906101000a900473ffffffffffffffffffffffffffffffffffffffff1673ffffffffffffffffffffffffffffffffffffffff1673ffffffffffffffffffffffffffffffffffffffff1681525050815260200190600101906111a8565b505050509050919050565b6060600360008373ffffffffffffffffffffffffffffffffffffffff1673ffffffffffffffffffffffffffffffffffffffff168152602001908152602001600020805480602002602001604051908101604052809291908181526020016000905b828210156113fa578382906000526020600020018054600181600116156101000203166002900480601f0160208091040260200160405190810160405280929190818152602001828054600181600116156101000203166002900480156113e65780601f106113bb576101008083540402835291602001916113e6565b820191906000526020600020905b8154815290600101906020018083116113c957829003601f168201915b50505050508152602001906001019061133e565b505050509050919050565b6000600360008473ffffffffffffffffffffffffffffffffffffffff1673ffffffffffffffffffffffffffffffffffffffff1681526020019081526020016000208290806001815401808255809150509060018203906000526020600020016000909192909190915090805190602001906114819291906116d3565b50506001905092915050565b6060600660008373ffffffffffffffffffffffffffffffffffffffff1673ffffffffffffffffffffffffffffffffffffffff168152602001908152602001600020805480602002602001604051908101604052809291908181526020016000905b8282101561161857838290600052602060002090600202016040805190810160405290816000820160009054906101000a900473ffffffffffffffffffffffffffffffffffffffff1673ffffffffffffffffffffffffffffffffffffffff1673ffffffffffffffffffffffffffffffffffffffff168152602001600182018054600181600116156101000203166002900480601f0160208091040260200160405190810160405280929190818152602001828054600181600116156101000203166002900480156116005780601f106115d557610100808354040283529160200191611600565b820191906000526020600020905b8154815290600101906020018083116115e357829003601f168201915b505050505081525050815260200190600101906114ee565b505050509050919050565b604080519081016040528060608152602001600073ffffffffffffffffffffffffffffffffffffffff1681525090565b828054600181600116156101000203166002900490600052602060002090601f016020900481019282601f1061169457805160ff19168380011785556116c2565b828001600101855582156116c2579182015b828111156116c15782518255916020019190600101906116a6565b5b5090506116cf91906117ab565b5090565b828054600181600116156101000203166002900490600052602060002090601f016020900481019282601f1061171457805160ff1916838001178555611742565b82800160010185558215611742579182015b82811115611741578251825591602001919060010190611726565b5b50905061174f91906117ab565b5090565b602060405190810160405280606081525090565b602060405190810160405280606081525090565b6040805190810160405280600073ffffffffffffffffffffffffffffffffffffffff168152602001606081525090565b6117cd91905b808211156117c95760008160009055506001016117b1565b5090565b90565b60006117dc8235611fe2565b905092915050565b600082601f83011215156117f757600080fd5b813561180a61180582611ea9565b611e7c565b9150808252602083016020830185838301111561182657600080fd5b611831838284611ff4565b50505092915050565b60006020828403121561184c57600080fd5b600061185a848285016117d0565b91505092915050565b6000806040838503121561187657600080fd5b6000611884858286016117d0565b9250506020611895858286016117d0565b9150509250929050565b6000806000606084860312156118b457600080fd5b60006118c2868287016117d0565b93505060206118d3868287016117d0565b925050604084013567ffffffffffffffff8111156118f057600080fd5b6118fc868287016117e4565b9150509250925092565b6000806040838503121561191957600080fd5b6000611927858286016117d0565b925050602083013567ffffffffffffffff81111561194457600080fd5b611950858286016117e4565b9150509250929050565b61196381611fa4565b82525050565b600061197482611f16565b80845260208401935061198683611ed5565b60005b828110156119b85761199c86835161195a565b6119a582611f63565b9150602086019550600181019050611989565b50849250505092915050565b60006119cf82611f21565b808452602084019350836020820285016119e885611ee2565b60005b84811015611a21578383038852611a03838351611bc1565b9250611a0e82611f70565b91506020880197506001810190506119eb565b508196508694505050505092915050565b6000611a3d82611f2c565b80845260208401935083602082028501611a5685611eef565b60005b84811015611a8f578383038852611a71838351611c65565b9250611a7c82611f7d565b9150602088019750600181019050611a59565b508196508694505050505092915050565b6000611aab82611f37565b80845260208401935083602082028501611ac485611efc565b60005b84811015611afd578383038852611adf838351611c8f565b9250611aea82611f8a565b9150602088019750600181019050611ac7565b508196508694505050505092915050565b6000611b1982611f42565b80845260208401935083602082028501611b3285611f09565b60005b84811015611b6b578383038852611b4d838351611cf6565b9250611b5882611f97565b9150602088019750600181019050611b35565b508196508694505050505092915050565b611b8581611fb6565b82525050565b6000611b9682611f58565b808452611baa816020860160208601612003565b611bb381612036565b602085010191505092915050565b6000611bcc82611f4d565b808452611be0816020860160208601612003565b611be981612036565b602085010191505092915050565b6000601f82527f4f6e6c792053757065727669736f72207573652074686973206d6574686f64006020830152604082019050919050565b6000601a82527f4f6e6c792041646d696e207573652074686973206d6574686f640000000000006020830152604082019050919050565b60006020830160008301518482036000860152611c828282611bc1565b9150508091505092915050565b6000604083016000830151611ca7600086018261195a565b5060208301518482036020860152611cbf8282611bc1565b9150508091505092915050565b60006020830160008301518482036000860152611ce98282611bc1565b9150508091505092915050565b60006040830160008301518482036000860152611d138282611bc1565b9150506020830151611d28602086018261195a565b508091505092915050565b60006020820190508181036000830152611d4d8184611969565b905092915050565b60006020820190508181036000830152611d6f81846119c4565b905092915050565b60006020820190508181036000830152611d918184611a32565b905092915050565b60006020820190508181036000830152611db38184611aa0565b905092915050565b60006020820190508181036000830152611dd58184611b0e565b905092915050565b6000602082019050611df26000830184611b7c565b92915050565b60006020820190508181036000830152611e128184611b8b565b905092915050565b60006020820190508181036000830152611e3381611bf7565b9050919050565b60006020820190508181036000830152611e5381611c2e565b9050919050565b60006020820190508181036000830152611e748184611ccc565b905092915050565b6000604051905081810181811067ffffffffffffffff82111715611e9f57600080fd5b8060405250919050565b600067ffffffffffffffff821115611ec057600080fd5b601f19601f8301169050602081019050919050565b6000602082019050919050565b6000602082019050919050565b6000602082019050919050565b6000602082019050919050565b6000602082019050919050565b600081519050919050565b600081519050919050565b600081519050919050565b600081519050919050565b600081519050919050565b600081519050919050565b600081519050919050565b6000602082019050919050565b6000602082019050919050565b6000602082019050919050565b6000602082019050919050565b6000602082019050919050565b6000611faf82611fc2565b9050919050565b60008115159050919050565b600073ffffffffffffffffffffffffffffffffffffffff82169050919050565b6000611fed82611fc2565b9050919050565b82818337600083830152505050565b60005b83811015612021578082015181840152602081019050612006565b83811115612030576000848401525b50505050565b6000601f19601f830116905091905056fea265627a7a7230582010489e4de1231234b161e8c531463a9ab647d8881a5fb1639d32df9a9def01836c6578706572696d656e74616cf50037",
  "source": "pragma solidity >=0.4.22 <0.8.0;\r\npragma experimental ABIEncoderV2;\r\n\r\ncontract Smart_Police{\r\n    //constructor\r\n    constructor()public{\r\n        admin = msg.sender;\r\n    }\r\n    address private admin;\r\n    //struct\r\n    struct Bandit{\r\n        string publicInfo;\r\n    }\r\n    struct Police{\r\n        string publicInfo;\r\n    }\r\n    struct Portfolio{\r\n        string portfolio;\r\n        address supervisor;\r\n    }\r\n    //struct of certifier\r\n    struct Certifier{\r\n        address certifier;\r\n        string certifierPublicInfo;\r\n    }\r\n    \r\n    //modifier path\r\n    modifier onlyAdmin{\r\n        require(msg.sender == admin , 'Only Admin use this method');\r\n        _;\r\n    }\r\n    //.\r\n    //mapping varible\r\n    mapping(address =>bool) private Claim;\r\n    mapping(address => mapping (address => Bandit[])) private HistoryBanditArray; \r\n    mapping(address => string[]) private IpfsData;\r\n    mapping(address => string[]) private TransactionData;\r\n    mapping(address => address[])private RecorderBandit;\r\n    mapping(address => Certifier[]) private certifierBandit;\r\n    mapping(address => Police) private PoliceData;\r\n    mapping(address => Portfolio[]) private PortfolioData;\r\n    //event of transaction\r\n    event _SetSupervisor(address indexed _admin,address indexed _supervisor);\r\n    event _SetHistoryBandit(address indexed _admin,address indexed _bandit,string _publicInfo);\r\n    event _PoliceInfo(address indexed _police,string _publicInfo);\r\n    event _RecorderBandit(address indexed _supervisor,address indexed _bandit);\r\n    \r\n    //function set supervisor by admin\r\n    function setSupervisor(address _Supervisor)public onlyAdmin returns(bool sucess){\r\n        Claim[_Supervisor] = true;\r\n        emit _SetSupervisor(admin,_Supervisor);\r\n        return true;\r\n    }\r\n    //function set portfolio\r\n    function setPortfolio(address _Supervisor,address _Police,string memory _Portfolio)public returns (bool sucess){\r\n        require(Claim[_Supervisor] == true,\"Only Supervisor use this method\");\r\n        Portfolio memory _PortfolioObj = Portfolio(_Portfolio,_Supervisor);\r\n        PortfolioData[_Police].push(_PortfolioObj);\r\n        return true;\r\n    }\r\n    //function add  ipfs uri\r\n    function addIpfs(address _Police,string memory _Ipfs)public returns (bool sucess){\r\n        IpfsData[_Police].push(_Ipfs);\r\n        return true;\r\n    }\r\n    //function add transaction\r\n    function addTransaction(address _Police,string memory _Transaction)public returns (bool sucess){\r\n        TransactionData[_Police].push(_Transaction);\r\n        return true;\r\n    }\r\n    //function add data police\r\n    function PoliceInfo(address _Police,string  memory _PublicInfo)public returns (bool sucess){\r\n        Police memory _PoliceObj = Police(_PublicInfo);\r\n        PoliceData[_Police] = _PoliceObj;\r\n        emit _PoliceInfo(_Police,_PublicInfo);\r\n        return true;\r\n    }\r\n    //function set history of bandit\r\n    function setHistoryBandit(address _Supervisor,address _Bandit,string memory _PublicInfo)public returns(bool sucess){\r\n    require(Claim[_Supervisor] == true,\"Only Supervisor use this method\");\r\n        Bandit memory _BanditObj = Bandit(_PublicInfo);\r\n        Certifier memory _CertifierObj = Certifier(_Supervisor,_PublicInfo);\r\n        certifierBandit[_Bandit].push(_CertifierObj);\r\n        HistoryBanditArray[_Bandit][_Supervisor].push(_BanditObj);\r\n        RecorderBandit[_Supervisor].push(_Bandit);\r\n        emit _RecorderBandit(_Supervisor,_Bandit);\r\n        emit _SetHistoryBandit(_Supervisor,_Bandit,_PublicInfo);\r\n        return true;\r\n    }\r\n    \r\n    //function get data of police by address\r\n    function getPoliceInfo(address _Police)public view returns(Police memory){\r\n        return PoliceData[_Police];\r\n    }\r\n    //function get all history of bandit \r\n    function getHistoryBanditArray(address _Certifier,address _Bandit)public view returns(Bandit[] memory){ //function get history of bandit\r\n        return (HistoryBanditArray[_Bandit][_Certifier]);\r\n    }\r\n    //function get certifier of bandit\r\n    function getCertifierBandit(address _Bandit)public view returns(Certifier[] memory){ //function get certifier bandit\r\n        return (certifierBandit[_Bandit]);\r\n    }\r\n    //function get certifier of bandit\r\n    function getRecorderBandit(address _Recorder)public view returns(address[] memory){ //function get certifier bandit\r\n        return (RecorderBandit[_Recorder]);\r\n    }\r\n    function getPortfolio(address _Police)public view returns(Portfolio[] memory){\r\n        return PortfolioData[_Police];\r\n    }\r\n    //function get claim\r\n    function getClaim(address _Recorder)public view returns(bool sucess){\r\n        return Claim[_Recorder];\r\n    }\r\n    //function get ipfs\r\n    function getIpfs(address _Police)public view returns (string[] memory){\r\n        return IpfsData[_Police];\r\n    }\r\n    //function get transaction\r\n    function getTransaction(address _Police)public view returns (string[] memory){\r\n        return TransactionData[_Police];\r\n    }\r\n    // \r\n}",
  "sourcePath": "C:/Users/Arima/Desktop/Smart_Police/back-end/truffle/contracts/Smart_Police.sol",
  "compiler": {
    "name": "solc",
    "version": "0.5.1+commit.c8a2cb62.Linux.g++"
  },
  "schemaVersion": "3.2.3",
  "updatedAt": "2020-08-26T23:50:40.022Z",
  "networkType": "ethereum",
  "devdoc": {
    "methods": {}
  },
  "userdoc": {
    "methods": {}
  }
}