{
  "contractName": "Smart_Police",
  "abi": [
    {
      "inputs": [],
      "payable": false,
      "stateMutability": "nonpayable",
      "type": "constructor"
    },
    {
      "anonymous": false,
      "inputs": [
        {
          "indexed": true,
          "name": "_admin",
          "type": "address"
        },
        {
          "indexed": true,
          "name": "supervisor",
          "type": "address"
        }
      ],
      "name": "_SetSupervisor",
      "type": "event"
    },
    {
      "anonymous": false,
      "inputs": [
        {
          "indexed": true,
          "name": "_admin",
          "type": "address"
        },
        {
          "indexed": true,
          "name": "_bandit",
          "type": "address"
        },
        {
          "indexed": false,
          "name": "_publicInfo",
          "type": "string"
        },
        {
          "indexed": false,
          "name": "_privateInfo",
          "type": "string"
        }
      ],
      "name": "_SetHistoryBandit",
      "type": "event"
    },
    {
      "constant": false,
      "inputs": [
        {
          "name": "_Supervisor",
          "type": "address"
        }
      ],
      "name": "setSupervisor",
      "outputs": [
        {
          "name": "",
          "type": "bool"
        }
      ],
      "payable": false,
      "stateMutability": "nonpayable",
      "type": "function"
    },
    {
      "constant": false,
      "inputs": [
        {
          "name": "_Bandit",
          "type": "address"
        },
        {
          "name": "_PublicInfo",
          "type": "string"
        },
        {
          "name": "_PrivateInfo",
          "type": "string"
        }
      ],
      "name": "setHistoryBandit",
      "outputs": [
        {
          "name": "",
          "type": "bool"
        }
      ],
      "payable": false,
      "stateMutability": "nonpayable",
      "type": "function"
    },
    {
      "constant": true,
      "inputs": [
        {
          "name": "_Certifier",
          "type": "address"
        },
        {
          "name": "_Bandit",
          "type": "address"
        }
      ],
      "name": "getHistoryBanditArray",
      "outputs": [
        {
          "components": [
            {
              "name": "publicInfo",
              "type": "string"
            },
            {
              "name": "privateInfo",
              "type": "string"
            }
          ],
          "name": "",
          "type": "tuple[]"
        }
      ],
      "payable": false,
      "stateMutability": "view",
      "type": "function"
    },
    {
      "constant": true,
      "inputs": [
        {
          "name": "_Bandit",
          "type": "address"
        }
      ],
      "name": "getCertifierBandit",
      "outputs": [
        {
          "components": [
            {
              "name": "certifier",
              "type": "address"
            },
            {
              "name": "certifierPublicInfo",
              "type": "string"
            },
            {
              "name": "certifierPrivateInfo",
              "type": "string"
            }
          ],
          "name": "",
          "type": "tuple[]"
        }
      ],
      "payable": false,
      "stateMutability": "view",
      "type": "function"
    },
    {
      "constant": true,
      "inputs": [
        {
          "name": "_Recorder",
          "type": "address"
        }
      ],
      "name": "getRecorderBandit",
      "outputs": [
        {
          "name": "",
          "type": "address[]"
        }
      ],
      "payable": false,
      "stateMutability": "view",
      "type": "function"
    }
  ],
  "bytecode": "0x608060405234801561001057600080fd5b50336000806101000a81548173ffffffffffffffffffffffffffffffffffffffff021916908373ffffffffffffffffffffffffffffffffffffffff1602179055506113d0806100606000396000f3fe608060405260043610610067576000357c010000000000000000000000000000000000000000000000000000000090048063057c2f0b1461006c5780630859c93f146100a9578063732b804e146100e65780639299eb3014610123578063f887dd8714610160575b600080fd5b34801561007857600080fd5b50610093600480360361008e9190810190610d6f565b61019d565b6040516100a0919061111d565b60405180910390f35b3480156100b557600080fd5b506100d060048036036100cb9190810190610d98565b61026a565b6040516100dd919061113f565b60405180910390f35b3480156100f257600080fd5b5061010d60048036036101089190810190610dd4565b61048a565b60405161011a9190611183565b60405180910390f35b34801561012f57600080fd5b5061014a60048036036101459190810190610d6f565b610867565b6040516101579190611183565b60405180910390f35b34801561016c57600080fd5b5061018760048036036101829190810190610d6f565b6109d5565b6040516101949190611161565b60405180910390f35b6060600460008373ffffffffffffffffffffffffffffffffffffffff1673ffffffffffffffffffffffffffffffffffffffff16815260200190815260200160002080548060200260200160405190810160405280929190818152602001828054801561025e57602002820191906000526020600020905b8160009054906101000a900473ffffffffffffffffffffffffffffffffffffffff1673ffffffffffffffffffffffffffffffffffffffff1681526020019060010190808311610214575b50505050509050919050565b6060600260008373ffffffffffffffffffffffffffffffffffffffff1673ffffffffffffffffffffffffffffffffffffffff16815260200190815260200160002060008473ffffffffffffffffffffffffffffffffffffffff1673ffffffffffffffffffffffffffffffffffffffff168152602001908152602001600020805480602002602001604051908101604052809291908181526020016000905b8282101561047e5783829060005260206000209060020201604080519081016040529081600082018054600181600116156101000203166002900480601f0160208091040260200160405190810160405280929190818152602001828054600181600116156101000203166002900480156103c45780601f10610399576101008083540402835291602001916103c4565b820191906000526020600020905b8154815290600101906020018083116103a757829003601f168201915b50505050508152602001600182018054600181600116156101000203166002900480601f0160208091040260200160405190810160405280929190818152602001828054600181600116156101000203166002900480156104665780601f1061043b57610100808354040283529160200191610466565b820191906000526020600020905b81548152906001019060200180831161044957829003601f168201915b50505050508152505081526020019060010190610308565b50505050905092915050565b600060011515600160003373ffffffffffffffffffffffffffffffffffffffff1673ffffffffffffffffffffffffffffffffffffffff16815260200190815260200160002060009054906101000a900460ff161515141515610521576040517f08c379a0000000000000000000000000000000000000000000000000000000008152600401610518906111d5565b60405180910390fd5b610529610c0e565b6040805190810160405280858152602001848152509050610548610c28565b6060604051908101604052803373ffffffffffffffffffffffffffffffffffffffff168152602001868152602001858152509050600360008773ffffffffffffffffffffffffffffffffffffffff1673ffffffffffffffffffffffffffffffffffffffff168152602001908152602001600020819080600181540180825580915050906001820390600052602060002090600302016000909192909190915060008201518160000160006101000a81548173ffffffffffffffffffffffffffffffffffffffff021916908373ffffffffffffffffffffffffffffffffffffffff160217905550602082015181600101908051906020019061064a929190610c60565b506040820151816002019080519060200190610667929190610c60565b50505050600260008773ffffffffffffffffffffffffffffffffffffffff1673ffffffffffffffffffffffffffffffffffffffff16815260200190815260200160002060003373ffffffffffffffffffffffffffffffffffffffff1673ffffffffffffffffffffffffffffffffffffffff1681526020019081526020016000208290806001815401808255809150509060018203906000526020600020906002020160009091929091909150600082015181600001908051906020019061072f929190610c60565b50602082015181600101908051906020019061074c929190610c60565b50505050600460003373ffffffffffffffffffffffffffffffffffffffff1673ffffffffffffffffffffffffffffffffffffffff1681526020019081526020016000208690806001815401808255809150509060018203906000526020600020016000909192909190916101000a81548173ffffffffffffffffffffffffffffffffffffffff021916908373ffffffffffffffffffffffffffffffffffffffff160217905550508573ffffffffffffffffffffffffffffffffffffffff163373ffffffffffffffffffffffffffffffffffffffff167f510043e75b856ecf1952ddf5971f5a907858dd898fc48ffc75f5b1ef5d37fda2878760405161085292919061119e565b60405180910390a36001925050509392505050565b60008060009054906101000a900473ffffffffffffffffffffffffffffffffffffffff1673ffffffffffffffffffffffffffffffffffffffff163373ffffffffffffffffffffffffffffffffffffffff161415156108fa576040517f08c379a00000000000000000000000000000000000000000000000000000000081526004016108f1906111f5565b60405180910390fd5b60018060008473ffffffffffffffffffffffffffffffffffffffff1673ffffffffffffffffffffffffffffffffffffffff16815260200190815260200160002060006101000a81548160ff0219169083151502179055508173ffffffffffffffffffffffffffffffffffffffff166000809054906101000a900473ffffffffffffffffffffffffffffffffffffffff1673ffffffffffffffffffffffffffffffffffffffff167f21a3f1c6fc6e5e45f35a978839247e7d1e97222deba64d14eee22796ab916ac260405160405180910390a360019050919050565b6060600360008373ffffffffffffffffffffffffffffffffffffffff1673ffffffffffffffffffffffffffffffffffffffff168152602001908152602001600020805480602002602001604051908101604052809291908181526020016000905b82821015610c035783829060005260206000209060030201606060405190810160405290816000820160009054906101000a900473ffffffffffffffffffffffffffffffffffffffff1673ffffffffffffffffffffffffffffffffffffffff1673ffffffffffffffffffffffffffffffffffffffff168152602001600182018054600181600116156101000203166002900480601f016020809104026020016040519081016040528092919081815260200182805460018160011615610100020316600290048015610b495780601f10610b1e57610100808354040283529160200191610b49565b820191906000526020600020905b815481529060010190602001808311610b2c57829003601f168201915b50505050508152602001600282018054600181600116156101000203166002900480601f016020809104026020016040519081016040528092919081815260200182805460018160011615610100020316600290048015610beb5780601f10610bc057610100808354040283529160200191610beb565b820191906000526020600020905b815481529060010190602001808311610bce57829003601f168201915b50505050508152505081526020019060010190610a36565b505050509050919050565b604080519081016040528060608152602001606081525090565b606060405190810160405280600073ffffffffffffffffffffffffffffffffffffffff16815260200160608152602001606081525090565b828054600181600116156101000203166002900490600052602060002090601f016020900481019282601f10610ca157805160ff1916838001178555610ccf565b82800160010185558215610ccf579182015b82811115610cce578251825591602001919060010190610cb3565b5b509050610cdc9190610ce0565b5090565b610d0291905b80821115610cfe576000816000905550600101610ce6565b5090565b90565b6000610d118235611331565b905092915050565b600082601f8301121515610d2c57600080fd5b8135610d3f610d3a82611242565b611215565b91508082526020830160208301858383011115610d5b57600080fd5b610d66838284611343565b50505092915050565b600060208284031215610d8157600080fd5b6000610d8f84828501610d05565b91505092915050565b60008060408385031215610dab57600080fd5b6000610db985828601610d05565b9250506020610dca85828601610d05565b9150509250929050565b600080600060608486031215610de957600080fd5b6000610df786828701610d05565b935050602084013567ffffffffffffffff811115610e1457600080fd5b610e2086828701610d19565b925050604084013567ffffffffffffffff811115610e3d57600080fd5b610e4986828701610d19565b9150509250925092565b610e5c816112f3565b82525050565b6000610e6d82611295565b808452602084019350610e7f8361126e565b60005b82811015610eb157610e95868351610e53565b610e9e826112cc565b9150602086019550600181019050610e82565b50849250505092915050565b6000610ec8826112a0565b80845260208401935083602082028501610ee18561127b565b60005b84811015610f1a578383038852610efc838351611082565b9250610f07826112d9565b9150602088019750600181019050610ee4565b508196508694505050505092915050565b6000610f36826112ab565b80845260208401935083602082028501610f4f85611288565b60005b84811015610f88578383038852610f6a8383516110c6565b9250610f75826112e6565b9150602088019750600181019050610f52565b508196508694505050505092915050565b610fa281611305565b82525050565b6000610fb3826112c1565b808452610fc7816020860160208601611352565b610fd081611385565b602085010191505092915050565b6000610fe9826112b6565b808452610ffd816020860160208601611352565b61100681611385565b602085010191505092915050565b6000601f82527f4f6e6c792053757065727669736f72207573652074686973206d6574686f64006020830152604082019050919050565b6000601a82527f4f6e6c792041646d696e207573652074686973206d6574686f640000000000006020830152604082019050919050565b6000604083016000830151848203600086015261109f8282610fde565b915050602083015184820360208601526110b98282610fde565b9150508091505092915050565b60006060830160008301516110de6000860182610e53565b50602083015184820360208601526110f68282610fde565b915050604083015184820360408601526111108282610fde565b9150508091505092915050565b600060208201905081810360008301526111378184610e62565b905092915050565b600060208201905081810360008301526111598184610ebd565b905092915050565b6000602082019050818103600083015261117b8184610f2b565b905092915050565b60006020820190506111986000830184610f99565b92915050565b600060408201905081810360008301526111b88185610fa8565b905081810360208301526111cc8184610fa8565b90509392505050565b600060208201905081810360008301526111ee81611014565b9050919050565b6000602082019050818103600083015261120e8161104b565b9050919050565b6000604051905081810181811067ffffffffffffffff8211171561123857600080fd5b8060405250919050565b600067ffffffffffffffff82111561125957600080fd5b601f19601f8301169050602081019050919050565b6000602082019050919050565b6000602082019050919050565b6000602082019050919050565b600081519050919050565b600081519050919050565b600081519050919050565b600081519050919050565b600081519050919050565b6000602082019050919050565b6000602082019050919050565b6000602082019050919050565b60006112fe82611311565b9050919050565b60008115159050919050565b600073ffffffffffffffffffffffffffffffffffffffff82169050919050565b600061133c82611311565b9050919050565b82818337600083830152505050565b60005b83811015611370578082015181840152602081019050611355565b8381111561137f576000848401525b50505050565b6000601f19601f830116905091905056fea265627a7a72305820386644c17e61efee7dd8d0ef3b6f234238e233eb2b7db42b729bde1dd6c6565c6c6578706572696d656e74616cf50037",
  "source": "pragma solidity >=0.4.22 <0.8.0;\r\npragma experimental ABIEncoderV2;\r\n\r\ncontract Smart_Police{\r\n    //constructor\r\n    constructor()public{\r\n        admin = msg.sender;\r\n    }\r\n    address private admin;\r\n    //struct of bandit\r\n    struct Bandit{\r\n        string publicInfo;\r\n        string privateInfo; //encryp data\r\n    }\r\n    \r\n    //struct of certifier\r\n    struct Certifier{\r\n        address certifier;\r\n        string certifierPublicInfo;\r\n        string certifierPrivateInfo;\r\n    }\r\n    \r\n    //modifier path\r\n    modifier onlyAdmin{\r\n        require(msg.sender == admin , 'Only Admin use this method');\r\n        _;\r\n    }\r\n    \r\n    //mapping \r\n    mapping(address =>bool) private Claim;\r\n    mapping(address => mapping (address => Bandit[])) private HistoryBanditArray; \r\n    mapping(address => Certifier[]) private certifierBandit;\r\n    mapping(address => address[])private RecorderBandit;\r\n    \r\n    //event\r\n    event _SetSupervisor(address indexed _admin,address indexed supervisor);\r\n    event _SetHistoryBandit(address indexed _admin,address indexed _bandit,string _publicInfo,string _privateInfo);\r\n    \r\n    //function set\r\n    function setSupervisor(address _Supervisor)public onlyAdmin returns(bool){\r\n        Claim[_Supervisor] = true;\r\n        emit _SetSupervisor(admin,_Supervisor);\r\n        return true;\r\n    }\r\n    //function set history of bandit\r\n    function setHistoryBandit(address _Bandit,string memory _PublicInfo,string memory _PrivateInfo)public returns(bool){\r\n    require(Claim[msg.sender] == true,\"Only Supervisor use this method\");\r\n        Bandit memory _BanditObj = Bandit(_PublicInfo,_PrivateInfo);\r\n        Certifier memory _CertifierObj = Certifier(msg.sender,_PublicInfo,_PrivateInfo);\r\n        certifierBandit[_Bandit].push(_CertifierObj);\r\n        HistoryBanditArray[_Bandit][msg.sender].push(_BanditObj);\r\n        RecorderBandit[msg.sender].push(_Bandit);\r\n        emit _SetHistoryBandit(msg.sender,_Bandit,_PublicInfo,_PrivateInfo);\r\n        return true;\r\n    }\r\n    \r\n    //function get all history of bandit \r\n    function getHistoryBanditArray(address _Certifier,address _Bandit)public view returns(Bandit[] memory){ //function get history of bandit\r\n        return (HistoryBanditArray[_Bandit][_Certifier]);\r\n    }\r\n    //function get certifier of bandit\r\n    function getCertifierBandit(address _Bandit)public view returns(Certifier[] memory){ //function get certifier bandit\r\n        return (certifierBandit[_Bandit]);\r\n    }\r\n    //function get certifier of bandit\r\n    function getRecorderBandit(address _Recorder)public view returns(address[] memory){ //function get certifier bandit\r\n        return (RecorderBandit[_Recorder]);\r\n    }\r\n}",
  "sourcePath": "C:/Users/Arima/Desktop/Smart_Police/back-end/truffle/contracts/Smart_Police.sol",
  "compiler": {
    "name": "solc",
    "version": "0.5.1+commit.c8a2cb62.Linux.g++"
  },
  "schemaVersion": "3.2.3",
  "updatedAt": "2020-08-18T21:28:19.168Z",
  "networkType": "ethereum",
  "devdoc": {
    "methods": {}
  },
  "userdoc": {
    "methods": {}
  }
}