{
  "contractName": "Smart_Police",
  "abi": [
    {
      "inputs": [],
      "payable": false,
      "stateMutability": "nonpayable",
      "type": "constructor"
    },
    {
      "anonymous": false,
      "inputs": [
        {
          "indexed": true,
          "name": "_admin",
          "type": "address"
        },
        {
          "indexed": true,
          "name": "supervisor",
          "type": "address"
        }
      ],
      "name": "_SetSupervisor",
      "type": "event"
    },
    {
      "anonymous": false,
      "inputs": [
        {
          "indexed": true,
          "name": "_admin",
          "type": "address"
        },
        {
          "indexed": true,
          "name": "_bandit",
          "type": "address"
        },
        {
          "indexed": false,
          "name": "_publicInfo",
          "type": "string"
        }
      ],
      "name": "_SetHistoryBandit",
      "type": "event"
    },
    {
      "constant": false,
      "inputs": [
        {
          "name": "_Supervisor",
          "type": "address"
        }
      ],
      "name": "setSupervisor",
      "outputs": [
        {
          "name": "",
          "type": "bool"
        }
      ],
      "payable": false,
      "stateMutability": "nonpayable",
      "type": "function"
    },
    {
      "constant": false,
      "inputs": [
        {
          "name": "_Police",
          "type": "address"
        },
        {
          "name": "_PublicInfo",
          "type": "string"
        }
      ],
      "name": "PoliceInfo",
      "outputs": [
        {
          "name": "sucess",
          "type": "bool"
        }
      ],
      "payable": false,
      "stateMutability": "nonpayable",
      "type": "function"
    },
    {
      "constant": false,
      "inputs": [
        {
          "name": "_Supervisor",
          "type": "address"
        },
        {
          "name": "_Bandit",
          "type": "address"
        },
        {
          "name": "_PublicInfo",
          "type": "string"
        }
      ],
      "name": "setHistoryBandit",
      "outputs": [
        {
          "name": "sucess",
          "type": "bool"
        }
      ],
      "payable": false,
      "stateMutability": "nonpayable",
      "type": "function"
    },
    {
      "constant": true,
      "inputs": [
        {
          "name": "_Police",
          "type": "address"
        }
      ],
      "name": "getPoliceInfo",
      "outputs": [
        {
          "components": [
            {
              "name": "publicInfo",
              "type": "string"
            }
          ],
          "name": "",
          "type": "tuple"
        }
      ],
      "payable": false,
      "stateMutability": "view",
      "type": "function"
    },
    {
      "constant": true,
      "inputs": [
        {
          "name": "_Certifier",
          "type": "address"
        },
        {
          "name": "_Bandit",
          "type": "address"
        }
      ],
      "name": "getHistoryBanditArray",
      "outputs": [
        {
          "components": [
            {
              "name": "publicInfo",
              "type": "string"
            }
          ],
          "name": "",
          "type": "tuple[]"
        }
      ],
      "payable": false,
      "stateMutability": "view",
      "type": "function"
    },
    {
      "constant": true,
      "inputs": [
        {
          "name": "_Bandit",
          "type": "address"
        }
      ],
      "name": "getCertifierBandit",
      "outputs": [
        {
          "components": [
            {
              "name": "certifier",
              "type": "address"
            },
            {
              "name": "certifierPublicInfo",
              "type": "string"
            }
          ],
          "name": "",
          "type": "tuple[]"
        }
      ],
      "payable": false,
      "stateMutability": "view",
      "type": "function"
    },
    {
      "constant": true,
      "inputs": [
        {
          "name": "_Recorder",
          "type": "address"
        }
      ],
      "name": "getRecorderBandit",
      "outputs": [
        {
          "name": "",
          "type": "address[]"
        }
      ],
      "payable": false,
      "stateMutability": "view",
      "type": "function"
    },
    {
      "constant": true,
      "inputs": [
        {
          "name": "_Recorder",
          "type": "address"
        }
      ],
      "name": "getClaim",
      "outputs": [
        {
          "name": "sucess",
          "type": "bool"
        }
      ],
      "payable": false,
      "stateMutability": "view",
      "type": "function"
    }
  ],
  "bytecode": "0x608060405234801561001057600080fd5b50336000806101000a81548173ffffffffffffffffffffffffffffffffffffffff021916908373ffffffffffffffffffffffffffffffffffffffff160217905550611532806100606000396000f3fe608060405260043610610088576000357c010000000000000000000000000000000000000000000000000000000090048063057c2f0b1461008d5780630859c93f146100ca5780634cd3723a146101075780639299eb3014610144578063bd5e204c14610181578063cfa53edf146101be578063decb4b69146101fb578063f887dd8714610238575b600080fd5b34801561009957600080fd5b506100b460048036036100af9190810190610e92565b610275565b6040516100c19190611272565b60405180910390f35b3480156100d657600080fd5b506100f160048036036100ec9190810190610ebb565b610342565b6040516100fe9190611294565b60405180910390f35b34801561011357600080fd5b5061012e60048036036101299190810190610e92565b6104bd565b60405161013b91906112d8565b60405180910390f35b34801561015057600080fd5b5061016b60048036036101669190810190610e92565b610513565b60405161017891906112d8565b60405180910390f35b34801561018d57600080fd5b506101a860048036036101a39190810190610e92565b610681565b6040516101b59190611355565b60405180910390f35b3480156101ca57600080fd5b506101e560048036036101e09190810190610f5e565b61077d565b6040516101f291906112d8565b60405180910390f35b34801561020757600080fd5b50610222600480360361021d9190810190610ef7565b610804565b60405161022f91906112d8565b60405180910390f35b34801561024457600080fd5b5061025f600480360361025a9190810190610e92565b610b95565b60405161026c91906112b6565b60405180910390f35b6060600460008373ffffffffffffffffffffffffffffffffffffffff1673ffffffffffffffffffffffffffffffffffffffff16815260200190815260200160002080548060200260200160405190810160405280929190818152602001828054801561033657602002820191906000526020600020905b8160009054906101000a900473ffffffffffffffffffffffffffffffffffffffff1673ffffffffffffffffffffffffffffffffffffffff16815260200190600101908083116102ec575b50505050509050919050565b6060600260008373ffffffffffffffffffffffffffffffffffffffff1673ffffffffffffffffffffffffffffffffffffffff16815260200190815260200160002060008473ffffffffffffffffffffffffffffffffffffffff1673ffffffffffffffffffffffffffffffffffffffff168152602001908152602001600020805480602002602001604051908101604052809291908181526020016000905b828210156104b15783829060005260206000200160206040519081016040529081600082018054600181600116156101000203166002900480601f0160208091040260200160405190810160405280929190818152602001828054600181600116156101000203166002900480156104995780601f1061046e57610100808354040283529160200191610499565b820191906000526020600020905b81548152906001019060200180831161047c57829003601f168201915b505050505081525050815260200190600101906103e0565b50505050905092915050565b6000600160008373ffffffffffffffffffffffffffffffffffffffff1673ffffffffffffffffffffffffffffffffffffffff16815260200190815260200160002060009054906101000a900460ff169050919050565b60008060009054906101000a900473ffffffffffffffffffffffffffffffffffffffff1673ffffffffffffffffffffffffffffffffffffffff163373ffffffffffffffffffffffffffffffffffffffff161415156105a6576040517f08c379a000000000000000000000000000000000000000000000000000000000815260040161059d90611335565b60405180910390fd5b60018060008473ffffffffffffffffffffffffffffffffffffffff1673ffffffffffffffffffffffffffffffffffffffff16815260200190815260200160002060006101000a81548160ff0219169083151502179055508173ffffffffffffffffffffffffffffffffffffffff166000809054906101000a900473ffffffffffffffffffffffffffffffffffffffff1673ffffffffffffffffffffffffffffffffffffffff167f21a3f1c6fc6e5e45f35a978839247e7d1e97222deba64d14eee22796ab916ac260405160405180910390a360019050919050565b610689610d2b565b600560008373ffffffffffffffffffffffffffffffffffffffff1673ffffffffffffffffffffffffffffffffffffffff16815260200190815260200160002060206040519081016040529081600082018054600181600116156101000203166002900480601f01602080910402602001604051908101604052809291908181526020018280546001816001161561010002031660029004801561076d5780601f106107425761010080835404028352916020019161076d565b820191906000526020600020905b81548152906001019060200180831161075057829003601f168201915b5050505050815250509050919050565b6000610787610d2b565b60206040519081016040528084815250905080600560008673ffffffffffffffffffffffffffffffffffffffff1673ffffffffffffffffffffffffffffffffffffffff16815260200190815260200160002060008201518160000190805190602001906107f5929190610d3f565b50905050600191505092915050565b600060011515600160008673ffffffffffffffffffffffffffffffffffffffff1673ffffffffffffffffffffffffffffffffffffffff16815260200190815260200160002060009054906101000a900460ff16151514151561089b576040517f08c379a000000000000000000000000000000000000000000000000000000000815260040161089290611315565b60405180910390fd5b6108a3610dbf565b6020604051908101604052808481525090506108bd610dd3565b60408051908101604052808773ffffffffffffffffffffffffffffffffffffffff168152602001858152509050600360008673ffffffffffffffffffffffffffffffffffffffff1673ffffffffffffffffffffffffffffffffffffffff168152602001908152602001600020819080600181540180825580915050906001820390600052602060002090600202016000909192909190915060008201518160000160006101000a81548173ffffffffffffffffffffffffffffffffffffffff021916908373ffffffffffffffffffffffffffffffffffffffff16021790555060208201518160010190805190602001906109b8929190610d3f565b50505050600260008673ffffffffffffffffffffffffffffffffffffffff1673ffffffffffffffffffffffffffffffffffffffff16815260200190815260200160002060008773ffffffffffffffffffffffffffffffffffffffff1673ffffffffffffffffffffffffffffffffffffffff168152602001908152602001600020829080600181540180825580915050906001820390600052602060002001600090919290919091506000820151816000019080519060200190610a7c929190610d3f565b50505050600460008773ffffffffffffffffffffffffffffffffffffffff1673ffffffffffffffffffffffffffffffffffffffff1681526020019081526020016000208590806001815401808255809150509060018203906000526020600020016000909192909190916101000a81548173ffffffffffffffffffffffffffffffffffffffff021916908373ffffffffffffffffffffffffffffffffffffffff160217905550508473ffffffffffffffffffffffffffffffffffffffff168673ffffffffffffffffffffffffffffffffffffffff167f54a91023aeb9a25e62b48936f2a6a11d23acaef6098c1c3c992d1ab6df3c62c386604051610b8091906112f3565b60405180910390a36001925050509392505050565b6060600360008373ffffffffffffffffffffffffffffffffffffffff1673ffffffffffffffffffffffffffffffffffffffff168152602001908152602001600020805480602002602001604051908101604052809291908181526020016000905b82821015610d2057838290600052602060002090600202016040805190810160405290816000820160009054906101000a900473ffffffffffffffffffffffffffffffffffffffff1673ffffffffffffffffffffffffffffffffffffffff1673ffffffffffffffffffffffffffffffffffffffff168152602001600182018054600181600116156101000203166002900480601f016020809104026020016040519081016040528092919081815260200182805460018160011615610100020316600290048015610d085780601f10610cdd57610100808354040283529160200191610d08565b820191906000526020600020905b815481529060010190602001808311610ceb57829003601f168201915b50505050508152505081526020019060010190610bf6565b505050509050919050565b602060405190810160405280606081525090565b828054600181600116156101000203166002900490600052602060002090601f016020900481019282601f10610d8057805160ff1916838001178555610dae565b82800160010185558215610dae579182015b82811115610dad578251825591602001919060010190610d92565b5b509050610dbb9190610e03565b5090565b602060405190810160405280606081525090565b6040805190810160405280600073ffffffffffffffffffffffffffffffffffffffff168152602001606081525090565b610e2591905b80821115610e21576000816000905550600101610e09565b5090565b90565b6000610e348235611493565b905092915050565b600082601f8301121515610e4f57600080fd5b8135610e62610e5d826113a4565b611377565b91508082526020830160208301858383011115610e7e57600080fd5b610e898382846114a5565b50505092915050565b600060208284031215610ea457600080fd5b6000610eb284828501610e28565b91505092915050565b60008060408385031215610ece57600080fd5b6000610edc85828601610e28565b9250506020610eed85828601610e28565b9150509250929050565b600080600060608486031215610f0c57600080fd5b6000610f1a86828701610e28565b9350506020610f2b86828701610e28565b925050604084013567ffffffffffffffff811115610f4857600080fd5b610f5486828701610e3c565b9150509250925092565b60008060408385031215610f7157600080fd5b6000610f7f85828601610e28565b925050602083013567ffffffffffffffff811115610f9c57600080fd5b610fa885828601610e3c565b9150509250929050565b610fbb81611455565b82525050565b6000610fcc826113f7565b808452602084019350610fde836113d0565b60005b8281101561101057610ff4868351610fb2565b610ffd8261142e565b9150602086019550600181019050610fe1565b50849250505092915050565b600061102782611402565b80845260208401935083602082028501611040856113dd565b60005b8481101561107957838303885261105b8383516111e1565b92506110668261143b565b9150602088019750600181019050611043565b508196508694505050505092915050565b60006110958261140d565b808452602084019350836020820285016110ae856113ea565b60005b848110156110e75783830388526110c983835161120b565b92506110d482611448565b91506020880197506001810190506110b1565b508196508694505050505092915050565b61110181611467565b82525050565b600061111282611423565b8084526111268160208601602086016114b4565b61112f816114e7565b602085010191505092915050565b600061114882611418565b80845261115c8160208601602086016114b4565b611165816114e7565b602085010191505092915050565b6000601f82527f4f6e6c792053757065727669736f72207573652074686973206d6574686f64006020830152604082019050919050565b6000601a82527f4f6e6c792041646d696e207573652074686973206d6574686f640000000000006020830152604082019050919050565b600060208301600083015184820360008601526111fe828261113d565b9150508091505092915050565b60006040830160008301516112236000860182610fb2565b506020830151848203602086015261123b828261113d565b9150508091505092915050565b60006020830160008301518482036000860152611265828261113d565b9150508091505092915050565b6000602082019050818103600083015261128c8184610fc1565b905092915050565b600060208201905081810360008301526112ae818461101c565b905092915050565b600060208201905081810360008301526112d0818461108a565b905092915050565b60006020820190506112ed60008301846110f8565b92915050565b6000602082019050818103600083015261130d8184611107565b905092915050565b6000602082019050818103600083015261132e81611173565b9050919050565b6000602082019050818103600083015261134e816111aa565b9050919050565b6000602082019050818103600083015261136f8184611248565b905092915050565b6000604051905081810181811067ffffffffffffffff8211171561139a57600080fd5b8060405250919050565b600067ffffffffffffffff8211156113bb57600080fd5b601f19601f8301169050602081019050919050565b6000602082019050919050565b6000602082019050919050565b6000602082019050919050565b600081519050919050565b600081519050919050565b600081519050919050565b600081519050919050565b600081519050919050565b6000602082019050919050565b6000602082019050919050565b6000602082019050919050565b600061146082611473565b9050919050565b60008115159050919050565b600073ffffffffffffffffffffffffffffffffffffffff82169050919050565b600061149e82611473565b9050919050565b82818337600083830152505050565b60005b838110156114d25780820151818401526020810190506114b7565b838111156114e1576000848401525b50505050565b6000601f19601f830116905091905056fea265627a7a7230582046e9ddfa5717f578b8452f8f2c0671e29836bb463cb146d9f19388caed7e99fa6c6578706572696d656e74616cf50037",
  "source": "pragma solidity >=0.4.22 <0.8.0;\r\npragma experimental ABIEncoderV2;\r\n\r\ncontract Smart_Police{\r\n    //constructor\r\n    constructor()public{\r\n        admin = msg.sender;\r\n    }\r\n    address private admin;\r\n    //struct of bandit\r\n    struct Bandit{\r\n        string publicInfo;\r\n    }\r\n    struct Police{\r\n        string publicInfo;\r\n    }\r\n    \r\n    //struct of certifier\r\n    struct Certifier{\r\n        address certifier;\r\n        string certifierPublicInfo;\r\n    }\r\n    \r\n    //modifier path\r\n    modifier onlyAdmin{\r\n        require(msg.sender == admin , 'Only Admin use this method');\r\n        _;\r\n    }\r\n    //mapping \r\n    mapping(address =>bool) private Claim;\r\n    mapping(address => mapping (address => Bandit[])) private HistoryBanditArray; \r\n    mapping(address => Certifier[]) private certifierBandit;\r\n    mapping(address => address[])private RecorderBandit;\r\n    \r\n    mapping(address => Police) private PoliceData;\r\n    //event\r\n    event _SetSupervisor(address indexed _admin,address indexed supervisor);\r\n    event _SetHistoryBandit(address indexed _admin,address indexed _bandit,string _publicInfo);\r\n    \r\n    //function set supervisor by admin\r\n    function setSupervisor(address _Supervisor)public onlyAdmin returns(bool){\r\n        Claim[_Supervisor] = true;\r\n        emit _SetSupervisor(admin,_Supervisor);\r\n        return true;\r\n    }\r\n    //function add data police\r\n    function PoliceInfo(address _Police,string  memory _PublicInfo)public returns (bool sucess){\r\n        Police memory _PoliceObj = Police(_PublicInfo);\r\n        PoliceData[_Police] = _PoliceObj;\r\n        return true;\r\n        \r\n    }\r\n    //function set history of bandit\r\n    function setHistoryBandit(address _Supervisor,address _Bandit,string memory _PublicInfo)public returns(bool sucess){\r\n    require(Claim[_Supervisor] == true,\"Only Supervisor use this method\");\r\n        Bandit memory _BanditObj = Bandit(_PublicInfo);\r\n        Certifier memory _CertifierObj = Certifier(_Supervisor,_PublicInfo);\r\n        certifierBandit[_Bandit].push(_CertifierObj);\r\n        HistoryBanditArray[_Bandit][_Supervisor].push(_BanditObj);\r\n        RecorderBandit[_Supervisor].push(_Bandit);\r\n        emit _SetHistoryBandit(_Supervisor,_Bandit,_PublicInfo);\r\n        return true;\r\n    }\r\n    \r\n    //function get data of police by address\r\n    function getPoliceInfo(address _Police)public view returns(Police memory){\r\n        return PoliceData[_Police];\r\n    }\r\n    //function get all history of bandit \r\n    function getHistoryBanditArray(address _Certifier,address _Bandit)public view returns(Bandit[] memory){ //function get history of bandit\r\n        return (HistoryBanditArray[_Bandit][_Certifier]);\r\n    }\r\n    //function get certifier of bandit\r\n    function getCertifierBandit(address _Bandit)public view returns(Certifier[] memory){ //function get certifier bandit\r\n        return (certifierBandit[_Bandit]);\r\n    }\r\n    //function get certifier of bandit\r\n    function getRecorderBandit(address _Recorder)public view returns(address[] memory){ //function get certifier bandit\r\n        return (RecorderBandit[_Recorder]);\r\n    }\r\n    function getClaim(address _Recorder)public view returns(bool sucess){\r\n        return Claim[_Recorder];\r\n    }\r\n}",
  "sourcePath": "C:/Users/Arima/Desktop/Smart_Police/back-end/truffle/contracts/Smart_Police.sol",
  "compiler": {
    "name": "solc",
    "version": "0.5.1+commit.c8a2cb62.Linux.g++"
  },
  "schemaVersion": "3.2.3",
  "updatedAt": "2020-08-22T20:26:52.524Z",
  "devdoc": {
    "methods": {}
  },
  "userdoc": {
    "methods": {}
  }
}