{
  "contractName": "Smart_Police",
  "abi": [
    {
      "inputs": [],
      "payable": false,
      "stateMutability": "nonpayable",
      "type": "constructor"
    },
    {
      "anonymous": false,
      "inputs": [
        {
          "indexed": true,
          "name": "_admin",
          "type": "address"
        },
        {
          "indexed": true,
          "name": "_supervisor",
          "type": "address"
        }
      ],
      "name": "_SetSupervisor",
      "type": "event"
    },
    {
      "anonymous": false,
      "inputs": [
        {
          "indexed": true,
          "name": "_admin",
          "type": "address"
        },
        {
          "indexed": true,
          "name": "_bandit",
          "type": "address"
        },
        {
          "indexed": false,
          "name": "_publicInfo",
          "type": "string"
        }
      ],
      "name": "_SetHistoryBandit",
      "type": "event"
    },
    {
      "anonymous": false,
      "inputs": [
        {
          "indexed": true,
          "name": "_police",
          "type": "address"
        },
        {
          "indexed": false,
          "name": "_publicInfo",
          "type": "string"
        }
      ],
      "name": "_PoliceInfo",
      "type": "event"
    },
    {
      "anonymous": false,
      "inputs": [
        {
          "indexed": true,
          "name": "_bandit",
          "type": "address"
        },
        {
          "indexed": false,
          "name": "_publicInfo",
          "type": "string"
        }
      ],
      "name": "_Bandit_Info",
      "type": "event"
    },
    {
      "anonymous": false,
      "inputs": [
        {
          "indexed": true,
          "name": "_supervisor",
          "type": "address"
        },
        {
          "indexed": true,
          "name": "_bandit",
          "type": "address"
        }
      ],
      "name": "_RecorderBandit",
      "type": "event"
    },
    {
      "constant": false,
      "inputs": [
        {
          "name": "_Supervisor",
          "type": "address"
        }
      ],
      "name": "setSupervisor",
      "outputs": [
        {
          "name": "sucess",
          "type": "bool"
        }
      ],
      "payable": false,
      "stateMutability": "nonpayable",
      "type": "function"
    },
    {
      "constant": false,
      "inputs": [
        {
          "name": "_Supervisor",
          "type": "address"
        },
        {
          "name": "_Police",
          "type": "address"
        },
        {
          "name": "_Portfolio",
          "type": "string"
        }
      ],
      "name": "setPortfolio",
      "outputs": [
        {
          "name": "sucess",
          "type": "bool"
        }
      ],
      "payable": false,
      "stateMutability": "nonpayable",
      "type": "function"
    },
    {
      "constant": false,
      "inputs": [
        {
          "name": "_Police",
          "type": "address"
        },
        {
          "name": "_Ipfs",
          "type": "string"
        }
      ],
      "name": "addIpfs",
      "outputs": [
        {
          "name": "sucess",
          "type": "bool"
        }
      ],
      "payable": false,
      "stateMutability": "nonpayable",
      "type": "function"
    },
    {
      "constant": false,
      "inputs": [
        {
          "name": "_Police",
          "type": "address"
        },
        {
          "name": "_Transaction",
          "type": "string"
        }
      ],
      "name": "addTransaction",
      "outputs": [
        {
          "name": "sucess",
          "type": "bool"
        }
      ],
      "payable": false,
      "stateMutability": "nonpayable",
      "type": "function"
    },
    {
      "constant": false,
      "inputs": [
        {
          "name": "_Police",
          "type": "address"
        },
        {
          "name": "_PublicInfo",
          "type": "string"
        }
      ],
      "name": "PoliceInfo",
      "outputs": [
        {
          "name": "sucess",
          "type": "bool"
        }
      ],
      "payable": false,
      "stateMutability": "nonpayable",
      "type": "function"
    },
    {
      "constant": false,
      "inputs": [
        {
          "name": "_Bandit",
          "type": "address"
        },
        {
          "name": "_PublicInfo",
          "type": "string"
        }
      ],
      "name": "Bandit_Info",
      "outputs": [
        {
          "name": "sucess",
          "type": "bool"
        }
      ],
      "payable": false,
      "stateMutability": "nonpayable",
      "type": "function"
    },
    {
      "constant": false,
      "inputs": [
        {
          "name": "_Supervisor",
          "type": "address"
        },
        {
          "name": "_Bandit",
          "type": "address"
        },
        {
          "name": "_Report",
          "type": "string"
        }
      ],
      "name": "setHistoryBandit",
      "outputs": [
        {
          "name": "sucess",
          "type": "bool"
        }
      ],
      "payable": false,
      "stateMutability": "nonpayable",
      "type": "function"
    },
    {
      "constant": true,
      "inputs": [
        {
          "name": "_Police",
          "type": "address"
        }
      ],
      "name": "getPoliceInfo",
      "outputs": [
        {
          "components": [
            {
              "name": "publicInfo",
              "type": "string"
            }
          ],
          "name": "",
          "type": "tuple"
        }
      ],
      "payable": false,
      "stateMutability": "view",
      "type": "function"
    },
    {
      "constant": true,
      "inputs": [
        {
          "name": "_Bandit",
          "type": "address"
        }
      ],
      "name": "getBanditInfo",
      "outputs": [
        {
          "components": [
            {
              "name": "publicInfo",
              "type": "string"
            }
          ],
          "name": "",
          "type": "tuple"
        }
      ],
      "payable": false,
      "stateMutability": "view",
      "type": "function"
    },
    {
      "constant": true,
      "inputs": [
        {
          "name": "_Certifier",
          "type": "address"
        },
        {
          "name": "_Bandit",
          "type": "address"
        }
      ],
      "name": "getHistoryBanditArray",
      "outputs": [
        {
          "components": [
            {
              "name": "report",
              "type": "string"
            }
          ],
          "name": "",
          "type": "tuple[]"
        }
      ],
      "payable": false,
      "stateMutability": "view",
      "type": "function"
    },
    {
      "constant": true,
      "inputs": [
        {
          "name": "_Bandit",
          "type": "address"
        }
      ],
      "name": "getCertifierBandit",
      "outputs": [
        {
          "components": [
            {
              "name": "certifier",
              "type": "address"
            },
            {
              "name": "certifierPublicInfo",
              "type": "string"
            }
          ],
          "name": "",
          "type": "tuple[]"
        }
      ],
      "payable": false,
      "stateMutability": "view",
      "type": "function"
    },
    {
      "constant": true,
      "inputs": [
        {
          "name": "_Recorder",
          "type": "address"
        }
      ],
      "name": "getRecorderBandit",
      "outputs": [
        {
          "name": "",
          "type": "address[]"
        }
      ],
      "payable": false,
      "stateMutability": "view",
      "type": "function"
    },
    {
      "constant": true,
      "inputs": [
        {
          "name": "_Police",
          "type": "address"
        }
      ],
      "name": "getPortfolio",
      "outputs": [
        {
          "components": [
            {
              "name": "portfolio",
              "type": "string"
            },
            {
              "name": "supervisor",
              "type": "address"
            }
          ],
          "name": "",
          "type": "tuple[]"
        }
      ],
      "payable": false,
      "stateMutability": "view",
      "type": "function"
    },
    {
      "constant": true,
      "inputs": [
        {
          "name": "_Recorder",
          "type": "address"
        }
      ],
      "name": "getClaim",
      "outputs": [
        {
          "name": "sucess",
          "type": "bool"
        }
      ],
      "payable": false,
      "stateMutability": "view",
      "type": "function"
    },
    {
      "constant": true,
      "inputs": [
        {
          "name": "_Police",
          "type": "address"
        }
      ],
      "name": "getIpfs",
      "outputs": [
        {
          "name": "",
          "type": "string[]"
        }
      ],
      "payable": false,
      "stateMutability": "view",
      "type": "function"
    },
    {
      "constant": true,
      "inputs": [
        {
          "name": "_Police",
          "type": "address"
        }
      ],
      "name": "getTransaction",
      "outputs": [
        {
          "name": "",
          "type": "string[]"
        }
      ],
      "payable": false,
      "stateMutability": "view",
      "type": "function"
    }
  ],
  "bytecode": "0x608060405234801561001057600080fd5b50336000806101000a81548173ffffffffffffffffffffffffffffffffffffffff021916908373ffffffffffffffffffffffffffffffffffffffff160217905550612342806100606000396000f3fe6080604052600436106100e0576000357c010000000000000000000000000000000000000000000000000000000090048063057c2f0b146100e55780630859c93f146101225780631f37fa561461015f5780634cd3723a1461019c5780635244ea37146101d95780637bb86379146102165780639299eb3014610253578063ba15270014610290578063bd5e204c146102cd578063cfa53edf1461030a578063decb4b6914610347578063eb22ae1114610384578063f25447bf146103c1578063f36ac439146103fe578063f887dd871461043b578063fbe0287f14610478575b600080fd5b3480156100f157600080fd5b5061010c60048036036101079190810190611aaf565b6104b5565b6040516101199190611fd2565b60405180910390f35b34801561012e57600080fd5b5061014960048036036101449190810190611ad8565b610582565b6040516101569190612016565b60405180910390f35b34801561016b57600080fd5b5061018660048036036101819190810190611b14565b6106fd565b604051610193919061207c565b60405180910390f35b3480156101a857600080fd5b506101c360048036036101be9190810190611aaf565b6108a7565b6040516101d0919061207c565b60405180910390f35b3480156101e557600080fd5b5061020060048036036101fb9190810190611b7b565b6108fd565b60405161020d919061207c565b60405180910390f35b34801561022257600080fd5b5061023d60048036036102389190810190611aaf565b610985565b60405161024a9190611ff4565b60405180910390f35b34801561025f57600080fd5b5061027a60048036036102759190810190611aaf565b610aad565b604051610287919061207c565b60405180910390f35b34801561029c57600080fd5b506102b760048036036102b29190810190611aaf565b610c1b565b6040516102c491906120f9565b60405180910390f35b3480156102d957600080fd5b506102f460048036036102ef9190810190611aaf565b610d17565b604051610301919061211b565b60405180910390f35b34801561031657600080fd5b50610331600480360361032c9190810190611b7b565b610e13565b60405161033e919061207c565b60405180910390f35b34801561035357600080fd5b5061036e60048036036103699190810190611b14565b610ee8565b60405161037b919061207c565b60405180910390f35b34801561039057600080fd5b506103ab60048036036103a69190810190611aaf565b6112d3565b6040516103b8919061205a565b60405180910390f35b3480156103cd57600080fd5b506103e860048036036103e39190810190611aaf565b611469565b6040516103f59190611ff4565b60405180910390f35b34801561040a57600080fd5b5061042560048036036104209190810190611b7b565b611591565b604051610432919061207c565b60405180910390f35b34801561044757600080fd5b50610462600480360361045d9190810190611aaf565b611619565b60405161046f9190612038565b60405180910390f35b34801561048457600080fd5b5061049f600480360361049a9190810190611b7b565b6117af565b6040516104ac919061207c565b60405180910390f35b6060600560008373ffffffffffffffffffffffffffffffffffffffff1673ffffffffffffffffffffffffffffffffffffffff16815260200190815260200160002080548060200260200160405190810160405280929190818152602001828054801561057657602002820191906000526020600020905b8160009054906101000a900473ffffffffffffffffffffffffffffffffffffffff1673ffffffffffffffffffffffffffffffffffffffff168152602001906001019080831161052c575b50505050509050919050565b6060600260008373ffffffffffffffffffffffffffffffffffffffff1673ffffffffffffffffffffffffffffffffffffffff16815260200190815260200160002060008473ffffffffffffffffffffffffffffffffffffffff1673ffffffffffffffffffffffffffffffffffffffff168152602001908152602001600020805480602002602001604051908101604052809291908181526020016000905b828210156106f15783829060005260206000200160206040519081016040529081600082018054600181600116156101000203166002900480601f0160208091040260200160405190810160405280929190818152602001828054600181600116156101000203166002900480156106d95780601f106106ae576101008083540402835291602001916106d9565b820191906000526020600020905b8154815290600101906020018083116106bc57829003601f168201915b50505050508152505081526020019060010190610620565b50505050905092915050565b600060011515600160008673ffffffffffffffffffffffffffffffffffffffff1673ffffffffffffffffffffffffffffffffffffffff16815260200190815260200160002060009054906101000a900460ff161515141515610794576040517f08c379a000000000000000000000000000000000000000000000000000000000815260040161078b906120b9565b60405180910390fd5b61079c611884565b60408051908101604052808481526020018673ffffffffffffffffffffffffffffffffffffffff168152509050600960008573ffffffffffffffffffffffffffffffffffffffff1673ffffffffffffffffffffffffffffffffffffffff168152602001908152602001600020819080600181540180825580915050906001820390600052602060002090600202016000909192909190915060008201518160000190805190602001906108509291906118b4565b5060208201518160010160006101000a81548173ffffffffffffffffffffffffffffffffffffffff021916908373ffffffffffffffffffffffffffffffffffffffff16021790555050505060019150509392505050565b6000600160008373ffffffffffffffffffffffffffffffffffffffff1673ffffffffffffffffffffffffffffffffffffffff16815260200190815260200160002060009054906101000a900460ff169050919050565b6000600460008473ffffffffffffffffffffffffffffffffffffffff1673ffffffffffffffffffffffffffffffffffffffff168152602001908152602001600020829080600181540180825580915050906001820390600052602060002001600090919290919091509080519060200190610979929190611934565b50506001905092915050565b6060600460008373ffffffffffffffffffffffffffffffffffffffff1673ffffffffffffffffffffffffffffffffffffffff168152602001908152602001600020805480602002602001604051908101604052809291908181526020016000905b82821015610aa2578382906000526020600020018054600181600116156101000203166002900480601f016020809104026020016040519081016040528092919081815260200182805460018160011615610100020316600290048015610a8e5780601f10610a6357610100808354040283529160200191610a8e565b820191906000526020600020905b815481529060010190602001808311610a7157829003601f168201915b5050505050815260200190600101906109e6565b505050509050919050565b60008060009054906101000a900473ffffffffffffffffffffffffffffffffffffffff1673ffffffffffffffffffffffffffffffffffffffff163373ffffffffffffffffffffffffffffffffffffffff16141515610b40576040517f08c379a0000000000000000000000000000000000000000000000000000000008152600401610b37906120d9565b60405180910390fd5b60018060008473ffffffffffffffffffffffffffffffffffffffff1673ffffffffffffffffffffffffffffffffffffffff16815260200190815260200160002060006101000a81548160ff0219169083151502179055508173ffffffffffffffffffffffffffffffffffffffff166000809054906101000a900473ffffffffffffffffffffffffffffffffffffffff1673ffffffffffffffffffffffffffffffffffffffff167f21a3f1c6fc6e5e45f35a978839247e7d1e97222deba64d14eee22796ab916ac260405160405180910390a360019050919050565b610c236119b4565b600860008373ffffffffffffffffffffffffffffffffffffffff1673ffffffffffffffffffffffffffffffffffffffff16815260200190815260200160002060206040519081016040529081600082018054600181600116156101000203166002900480601f016020809104026020016040519081016040528092919081815260200182805460018160011615610100020316600290048015610d075780601f10610cdc57610100808354040283529160200191610d07565b820191906000526020600020905b815481529060010190602001808311610cea57829003601f168201915b5050505050815250509050919050565b610d1f6119c8565b600760008373ffffffffffffffffffffffffffffffffffffffff1673ffffffffffffffffffffffffffffffffffffffff16815260200190815260200160002060206040519081016040529081600082018054600181600116156101000203166002900480601f016020809104026020016040519081016040528092919081815260200182805460018160011615610100020316600290048015610e035780601f10610dd857610100808354040283529160200191610e03565b820191906000526020600020905b815481529060010190602001808311610de657829003601f168201915b5050505050815250509050919050565b6000610e1d6119c8565b60206040519081016040528084815250905080600760008673ffffffffffffffffffffffffffffffffffffffff1673ffffffffffffffffffffffffffffffffffffffff1681526020019081526020016000206000820151816000019080519060200190610e8b9291906118b4565b509050508373ffffffffffffffffffffffffffffffffffffffff167f948b75a8dd7d08325528519c8d786ce355391b1c3673cc6c7d040f66b174881284604051610ed59190612097565b60405180910390a2600191505092915050565b600060011515600160008673ffffffffffffffffffffffffffffffffffffffff1673ffffffffffffffffffffffffffffffffffffffff16815260200190815260200160002060009054906101000a900460ff161515141515610f7f576040517f08c379a0000000000000000000000000000000000000000000000000000000008152600401610f76906120b9565b60405180910390fd5b610f876119dc565b602060405190810160405280848152509050610fa16119f0565b60408051908101604052808773ffffffffffffffffffffffffffffffffffffffff168152602001858152509050600660008673ffffffffffffffffffffffffffffffffffffffff1673ffffffffffffffffffffffffffffffffffffffff168152602001908152602001600020819080600181540180825580915050906001820390600052602060002090600202016000909192909190915060008201518160000160006101000a81548173ffffffffffffffffffffffffffffffffffffffff021916908373ffffffffffffffffffffffffffffffffffffffff160217905550602082015181600101908051906020019061109c9291906118b4565b50505050600260008673ffffffffffffffffffffffffffffffffffffffff1673ffffffffffffffffffffffffffffffffffffffff16815260200190815260200160002060008773ffffffffffffffffffffffffffffffffffffffff1673ffffffffffffffffffffffffffffffffffffffff1681526020019081526020016000208290806001815401808255809150509060018203906000526020600020016000909192909190915060008201518160000190805190602001906111609291906118b4565b50505050600560008773ffffffffffffffffffffffffffffffffffffffff1673ffffffffffffffffffffffffffffffffffffffff1681526020019081526020016000208590806001815401808255809150509060018203906000526020600020016000909192909190916101000a81548173ffffffffffffffffffffffffffffffffffffffff021916908373ffffffffffffffffffffffffffffffffffffffff160217905550508473ffffffffffffffffffffffffffffffffffffffff168673ffffffffffffffffffffffffffffffffffffffff167fbc4ca386deb6df9c6f82b37c1eae45c3e42350e8bd33440f846ac76ccc0d326560405160405180910390a38473ffffffffffffffffffffffffffffffffffffffff168673ffffffffffffffffffffffffffffffffffffffff167f54a91023aeb9a25e62b48936f2a6a11d23acaef6098c1c3c992d1ab6df3c62c3866040516112be9190612097565b60405180910390a36001925050509392505050565b6060600960008373ffffffffffffffffffffffffffffffffffffffff1673ffffffffffffffffffffffffffffffffffffffff168152602001908152602001600020805480602002602001604051908101604052809291908181526020016000905b8282101561145e5783829060005260206000209060020201604080519081016040529081600082018054600181600116156101000203166002900480601f0160208091040260200160405190810160405280929190818152602001828054600181600116156101000203166002900480156113f05780601f106113c5576101008083540402835291602001916113f0565b820191906000526020600020905b8154815290600101906020018083116113d357829003601f168201915b505050505081526020016001820160009054906101000a900473ffffffffffffffffffffffffffffffffffffffff1673ffffffffffffffffffffffffffffffffffffffff1673ffffffffffffffffffffffffffffffffffffffff168152505081526020019060010190611334565b505050509050919050565b6060600360008373ffffffffffffffffffffffffffffffffffffffff1673ffffffffffffffffffffffffffffffffffffffff168152602001908152602001600020805480602002602001604051908101604052809291908181526020016000905b82821015611586578382906000526020600020018054600181600116156101000203166002900480601f0160208091040260200160405190810160405280929190818152602001828054600181600116156101000203166002900480156115725780601f1061154757610100808354040283529160200191611572565b820191906000526020600020905b81548152906001019060200180831161155557829003601f168201915b5050505050815260200190600101906114ca565b505050509050919050565b6000600360008473ffffffffffffffffffffffffffffffffffffffff1673ffffffffffffffffffffffffffffffffffffffff16815260200190815260200160002082908060018154018082558091505090600182039060005260206000200160009091929091909150908051906020019061160d929190611934565b50506001905092915050565b6060600660008373ffffffffffffffffffffffffffffffffffffffff1673ffffffffffffffffffffffffffffffffffffffff168152602001908152602001600020805480602002602001604051908101604052809291908181526020016000905b828210156117a457838290600052602060002090600202016040805190810160405290816000820160009054906101000a900473ffffffffffffffffffffffffffffffffffffffff1673ffffffffffffffffffffffffffffffffffffffff1673ffffffffffffffffffffffffffffffffffffffff168152602001600182018054600181600116156101000203166002900480601f01602080910402602001604051908101604052809291908181526020018280546001816001161561010002031660029004801561178c5780601f106117615761010080835404028352916020019161178c565b820191906000526020600020905b81548152906001019060200180831161176f57829003601f168201915b5050505050815250508152602001906001019061167a565b505050509050919050565b60006117b96119b4565b60206040519081016040528084815250905080600860008673ffffffffffffffffffffffffffffffffffffffff1673ffffffffffffffffffffffffffffffffffffffff16815260200190815260200160002060008201518160000190805190602001906118279291906118b4565b509050508373ffffffffffffffffffffffffffffffffffffffff167f82c9dd4c7f0d098d85e9a422ae6045b84021140d577011e022315f987fd2b794846040516118719190612097565b60405180910390a2600191505092915050565b604080519081016040528060608152602001600073ffffffffffffffffffffffffffffffffffffffff1681525090565b828054600181600116156101000203166002900490600052602060002090601f016020900481019282601f106118f557805160ff1916838001178555611923565b82800160010185558215611923579182015b82811115611922578251825591602001919060010190611907565b5b5090506119309190611a20565b5090565b828054600181600116156101000203166002900490600052602060002090601f016020900481019282601f1061197557805160ff19168380011785556119a3565b828001600101855582156119a3579182015b828111156119a2578251825591602001919060010190611987565b5b5090506119b09190611a20565b5090565b602060405190810160405280606081525090565b602060405190810160405280606081525090565b602060405190810160405280606081525090565b6040805190810160405280600073ffffffffffffffffffffffffffffffffffffffff168152602001606081525090565b611a4291905b80821115611a3e576000816000905550600101611a26565b5090565b90565b6000611a5182356122a3565b905092915050565b600082601f8301121515611a6c57600080fd5b8135611a7f611a7a8261216a565b61213d565b91508082526020830160208301858383011115611a9b57600080fd5b611aa68382846122b5565b50505092915050565b600060208284031215611ac157600080fd5b6000611acf84828501611a45565b91505092915050565b60008060408385031215611aeb57600080fd5b6000611af985828601611a45565b9250506020611b0a85828601611a45565b9150509250929050565b600080600060608486031215611b2957600080fd5b6000611b3786828701611a45565b9350506020611b4886828701611a45565b925050604084013567ffffffffffffffff811115611b6557600080fd5b611b7186828701611a59565b9150509250925092565b60008060408385031215611b8e57600080fd5b6000611b9c85828601611a45565b925050602083013567ffffffffffffffff811115611bb957600080fd5b611bc585828601611a59565b9150509250929050565b611bd881612265565b82525050565b6000611be9826121d7565b808452602084019350611bfb83612196565b60005b82811015611c2d57611c11868351611bcf565b611c1a82612224565b9150602086019550600181019050611bfe565b50849250505092915050565b6000611c44826121e2565b80845260208401935083602082028501611c5d856121a3565b60005b84811015611c96578383038852611c78838351611e36565b9250611c8382612231565b9150602088019750600181019050611c60565b508196508694505050505092915050565b6000611cb2826121ed565b80845260208401935083602082028501611ccb856121b0565b60005b84811015611d04578383038852611ce6838351611f04565b9250611cf18261223e565b9150602088019750600181019050611cce565b508196508694505050505092915050565b6000611d20826121f8565b80845260208401935083602082028501611d39856121bd565b60005b84811015611d72578383038852611d54838351611f2e565b9250611d5f8261224b565b9150602088019750600181019050611d3c565b508196508694505050505092915050565b6000611d8e82612203565b80845260208401935083602082028501611da7856121ca565b60005b84811015611de0578383038852611dc2838351611f95565b9250611dcd82612258565b9150602088019750600181019050611daa565b508196508694505050505092915050565b611dfa81612277565b82525050565b6000611e0b82612219565b808452611e1f8160208601602086016122c4565b611e28816122f7565b602085010191505092915050565b6000611e418261220e565b808452611e558160208601602086016122c4565b611e5e816122f7565b602085010191505092915050565b6000601f82527f4f6e6c792053757065727669736f72207573652074686973206d6574686f64006020830152604082019050919050565b6000601a82527f4f6e6c792041646d696e207573652074686973206d6574686f640000000000006020830152604082019050919050565b60006020830160008301518482036000860152611ef78282611e36565b9150508091505092915050565b60006020830160008301518482036000860152611f218282611e36565b9150508091505092915050565b6000604083016000830151611f466000860182611bcf565b5060208301518482036020860152611f5e8282611e36565b9150508091505092915050565b60006020830160008301518482036000860152611f888282611e36565b9150508091505092915050565b60006040830160008301518482036000860152611fb28282611e36565b9150506020830151611fc76020860182611bcf565b508091505092915050565b60006020820190508181036000830152611fec8184611bde565b905092915050565b6000602082019050818103600083015261200e8184611c39565b905092915050565b600060208201905081810360008301526120308184611ca7565b905092915050565b600060208201905081810360008301526120528184611d15565b905092915050565b600060208201905081810360008301526120748184611d83565b905092915050565b60006020820190506120916000830184611df1565b92915050565b600060208201905081810360008301526120b18184611e00565b905092915050565b600060208201905081810360008301526120d281611e6c565b9050919050565b600060208201905081810360008301526120f281611ea3565b9050919050565b600060208201905081810360008301526121138184611eda565b905092915050565b600060208201905081810360008301526121358184611f6b565b905092915050565b6000604051905081810181811067ffffffffffffffff8211171561216057600080fd5b8060405250919050565b600067ffffffffffffffff82111561218157600080fd5b601f19601f8301169050602081019050919050565b6000602082019050919050565b6000602082019050919050565b6000602082019050919050565b6000602082019050919050565b6000602082019050919050565b600081519050919050565b600081519050919050565b600081519050919050565b600081519050919050565b600081519050919050565b600081519050919050565b600081519050919050565b6000602082019050919050565b6000602082019050919050565b6000602082019050919050565b6000602082019050919050565b6000602082019050919050565b600061227082612283565b9050919050565b60008115159050919050565b600073ffffffffffffffffffffffffffffffffffffffff82169050919050565b60006122ae82612283565b9050919050565b82818337600083830152505050565b60005b838110156122e25780820151818401526020810190506122c7565b838111156122f1576000848401525b50505050565b6000601f19601f830116905091905056fea265627a7a723058201c4bad805d35e088b3c77bceda44d8263a26149c8761c54392f5ad2efe5e2d7c6c6578706572696d656e74616cf50037",
  "source": "pragma solidity >=0.4.22 <0.8.0;\r\npragma experimental ABIEncoderV2;\r\n\r\ncontract Smart_Police {\r\n    //constructor\r\n    constructor() public {\r\n        admin = msg.sender;\r\n    }\r\n\r\n    address private admin;\r\n    //struct\r\n    struct Bandit {\r\n        string report;\r\n    }\r\n    struct Police {\r\n        string publicInfo;\r\n    }\r\n    struct BanditInfo {\r\n        string publicInfo;\r\n    }\r\n    struct Portfolio {\r\n        string portfolio;\r\n        address supervisor;\r\n    }\r\n    //struct of certifier\r\n    struct Certifier {\r\n        address certifier;\r\n        string certifierPublicInfo;\r\n    }\r\n\r\n    //modifier path\r\n    modifier onlyAdmin {\r\n        require(msg.sender == admin, \"Only Admin use this method\");\r\n        _;\r\n    }\r\n    //.\r\n    //mapping varible\r\n    mapping(address => bool) private Claim;\r\n    mapping(address => mapping(address => Bandit[])) private HistoryBanditArray;\r\n    mapping(address => string[]) private IpfsData;\r\n    mapping(address => string[]) private TransactionData;\r\n    mapping(address => address[]) private RecorderBandit;\r\n    mapping(address => Certifier[]) private certifierBandit;\r\n    mapping(address => Police) private PoliceData;\r\n    mapping(address => BanditInfo) private BanditData;\r\n    mapping(address => Portfolio[]) private PortfolioData;\r\n    //event of transaction\r\n    event _SetSupervisor(address indexed _admin, address indexed _supervisor);\r\n    event _SetHistoryBandit(\r\n        address indexed _admin,\r\n        address indexed _bandit,\r\n        string _publicInfo\r\n    );\r\n    event _PoliceInfo(address indexed _police, string _publicInfo);\r\n    event _Bandit_Info(address indexed _bandit, string _publicInfo);\r\n    event _RecorderBandit(address indexed _supervisor, address indexed _bandit);\r\n\r\n    //function set supervisor by admin\r\n    function setSupervisor(address _Supervisor)\r\n        public\r\n        onlyAdmin\r\n        returns (bool sucess)\r\n    {\r\n        Claim[_Supervisor] = true;\r\n        emit _SetSupervisor(admin, _Supervisor);\r\n        return true;\r\n    }\r\n\r\n    //function set portfolio\r\n    function setPortfolio(\r\n        address _Supervisor,\r\n        address _Police,\r\n        string memory _Portfolio\r\n    ) public returns (bool sucess) {\r\n        require(Claim[_Supervisor] == true, \"Only Supervisor use this method\");\r\n        Portfolio memory _PortfolioObj = Portfolio(_Portfolio, _Supervisor);\r\n        PortfolioData[_Police].push(_PortfolioObj);\r\n        return true;\r\n    }\r\n\r\n    //function add  ipfs uri\r\n    function addIpfs(address _Police, string memory _Ipfs)\r\n        public\r\n        returns (bool sucess)\r\n    {\r\n        IpfsData[_Police].push(_Ipfs);\r\n        return true;\r\n    }\r\n\r\n    //function add transaction\r\n    function addTransaction(address _Police, string memory _Transaction)\r\n        public\r\n        returns (bool sucess)\r\n    {\r\n        TransactionData[_Police].push(_Transaction);\r\n        return true;\r\n    }\r\n\r\n    //function add data police\r\n    function PoliceInfo(address _Police, string memory _PublicInfo)\r\n        public\r\n        returns (bool sucess)\r\n    {\r\n        Police memory _PoliceObj = Police(_PublicInfo);\r\n        PoliceData[_Police] = _PoliceObj;\r\n        emit _PoliceInfo(_Police, _PublicInfo);\r\n        return true;\r\n    }\r\n\r\n    //function add data bandit\r\n    function Bandit_Info(address _Bandit, string memory _PublicInfo)\r\n        public\r\n        returns (bool sucess)\r\n    {\r\n        BanditInfo memory _BanditInfoObj = BanditInfo(_PublicInfo);\r\n        BanditData[_Bandit] = _BanditInfoObj;\r\n        emit _Bandit_Info(_Bandit, _PublicInfo);\r\n        return true;\r\n    }\r\n\r\n    //function set history of bandit\r\n    function setHistoryBandit(\r\n        address _Supervisor,\r\n        address _Bandit,\r\n        string memory _Report\r\n    ) public returns (bool sucess) {\r\n        require(Claim[_Supervisor] == true, \"Only Supervisor use this method\");\r\n        Bandit memory _BanditObj = Bandit(_Report);\r\n        Certifier memory _CertifierObj = Certifier(_Supervisor, _Report);\r\n        certifierBandit[_Bandit].push(_CertifierObj);\r\n        HistoryBanditArray[_Bandit][_Supervisor].push(_BanditObj);\r\n        RecorderBandit[_Supervisor].push(_Bandit);\r\n        emit _RecorderBandit(_Supervisor, _Bandit);\r\n        emit _SetHistoryBandit(_Supervisor, _Bandit, _Report);\r\n        return true;\r\n    }\r\n\r\n    //function get data of police by address\r\n    function getPoliceInfo(address _Police)\r\n        public\r\n        view\r\n        returns (Police memory)\r\n    {\r\n        return PoliceData[_Police];\r\n    }\r\n\r\n    //function get data of police by address\r\n    function getBanditInfo(address _Bandit)\r\n        public\r\n        view\r\n        returns (BanditInfo memory)\r\n    {\r\n        return BanditData[_Bandit];\r\n    }\r\n\r\n    //function get all history of bandit\r\n    function getHistoryBanditArray(address _Certifier, address _Bandit)\r\n        public\r\n        view\r\n        returns (Bandit[] memory)\r\n    {\r\n        return (HistoryBanditArray[_Bandit][_Certifier]);\r\n    }\r\n\r\n    //function get certifier of bandit\r\n    function getCertifierBandit(address _Bandit)\r\n        public\r\n        view\r\n        returns (Certifier[] memory)\r\n    {\r\n        return (certifierBandit[_Bandit]);\r\n    }\r\n\r\n    //function get certifier of bandit\r\n    function getRecorderBandit(address _Recorder)\r\n        public\r\n        view\r\n        returns (address[] memory)\r\n    {\r\n        return (RecorderBandit[_Recorder]);\r\n    }\r\n\r\n    function getPortfolio(address _Police)\r\n        public\r\n        view\r\n        returns (Portfolio[] memory)\r\n    {\r\n        return PortfolioData[_Police];\r\n    }\r\n\r\n    //function get claim\r\n    function getClaim(address _Recorder) public view returns (bool sucess) {\r\n        return Claim[_Recorder];\r\n    }\r\n\r\n    //function get ipfs\r\n    function getIpfs(address _Police) public view returns (string[] memory) {\r\n        return IpfsData[_Police];\r\n    }\r\n\r\n    //function get transaction\r\n    function getTransaction(address _Police)\r\n        public\r\n        view\r\n        returns (string[] memory)\r\n    {\r\n        return TransactionData[_Police];\r\n    }\r\n}\r\n",
  "sourcePath": "C:/Users/Arima/Desktop/Smart_Police/back-end/truffle/contracts/Smart_Police.sol",
  "compiler": {
    "name": "solc",
    "version": "0.5.1+commit.c8a2cb62.Linux.g++"
  },
  "schemaVersion": "3.2.3",
  "updatedAt": "2020-10-23T11:20:35.021Z",
  "networkType": "ethereum",
  "devdoc": {
    "methods": {}
  },
  "userdoc": {
    "methods": {}
  }
}